:100000000AC019C018C017C016C015C014C013C04C
:1000100013C011C010C011271FBFCFE5D0E0DEBF55
:10002000CDBF20E0A0E4B0E001C01D93A334B2072F
:10003000E1F76ED044C1E4CF1F930F930FB70F9336
:1000400010E00F910FBF0F911F91189561E082E0B2
:10005000BBD060E080E0B8D060E081E0B5D043B1D3
:10006000436043B981E005D18130910749F480E0D4
:1000700000D18130910711F448E10AC04FE008C077
:1000800080E0F7D08130910711F44BE001C047E0E8
:1000900042A961E082E0CAD010A940A1411307C083
:1000A0008CE494E059D040A14F5F40A9F6CF60E0C6
:1000B00082E0BCD0F8944AB745604ABF45B7426079
:1000C00045BFA89546E441BF789408954AB7417F5B
:1000D00044604ABF4AB741604ABF4AB741604ABF1D
:1000E00088954AB74E7F4ABF4AB74E7F4ABF41A163
:1000F0004F5F41A952A145130AC011A961E082E0F6
:1001000095D08CE494E028D060E082E08FC0089520
:1001100054D09CDFDBDFFECFCF93DF931F93CDB7AF
:10012000DEB78250910BA1F0880F991F8150910B7F
:10013000CF5FDF4F9883C150D040CF5FDF4F488102
:10014000882309F44A958A958823E9F74423D1F74F
:100150000F91DF91CF9108952F933F93CF93DF932A
:1001600000D0CDB7DEB7282F392FCE5FDF4F1883F1
:100170001A93C150D040CF5FDF4F49915881C25090
:10018000D0404217530790F486EC93E0C5DFCF5F71
:10019000DF4F49915881C250D0404F5F5F4FCE5FD3
:1001A000DF4F58834A93C150D040E5CF0F910F9154
:1001B000DF91CF913F912F91089548ED4CBF16BF2D
:1001C0004CBF16BF78940895843078F557B3E1E0BA
:1001D000F0E0AE2FBF2F02C0AA0FBB1F8A95E2F737
:1001E0008A2F9B2F4A2F4095542357BB61130AC077
:1001F0006FB7F89451B1542351B953B1452343B962
:100200006FBF08955FB7623041F4F89461B146233F
:1002100041B943B1842B83B907C0F89463B1462335
:1002200043B941B1842B81B95FBF0895811303C0E5
:100230004EB54F7704C0813019F44EB54F7D4EBD99
:100240007FB7F89461130AC062B141E050E001C089
:10025000440F8A95EAF74095462308C062B141E011
:1002600050E001C0440F8A95EAF7462B42B97FBFA0
:1002700008958430B0F447B361E070E0082F01C006
:10028000660F0A95EAF76095642367BB811304C083
:100290004EB54F774EBD05C0813019F44DB54F773F
:1002A0004DBD40B150E0642F752F02C07595679524
:1002B0008A95E2F7862F972F817099270895F894F1
:0202C000FFCF6E
:00000001FF
